{
  "_format": "hh-sol-artifact-1",
  "contractName": "MediDocContract",
  "sourceName": "contracts/MediDoc.sol",
  "abi": [
    {
      "anonymous": false,
      "inputs": [
        {
          "indexed": false,
          "internalType": "string",
          "name": "fileCID",
          "type": "string"
        },
        {
          "indexed": false,
          "internalType": "address",
          "name": "creator",
          "type": "address"
        },
        {
          "indexed": false,
          "internalType": "address",
          "name": "owner",
          "type": "address"
        }
      ],
      "name": "FileUploadLog",
      "type": "event"
    },
    {
      "anonymous": false,
      "inputs": [
        {
          "indexed": false,
          "internalType": "string",
          "name": "msg",
          "type": "string"
        }
      ],
      "name": "Verified",
      "type": "event"
    },
    {
      "inputs": [
        {
          "internalType": "string",
          "name": "fileName",
          "type": "string"
        },
        {
          "internalType": "string",
          "name": "fileCID",
          "type": "string"
        },
        {
          "internalType": "string",
          "name": "fileKey",
          "type": "string"
        },
        {
          "internalType": "string",
          "name": "fileHash",
          "type": "string"
        },
        {
          "internalType": "address",
          "name": "ownerAddress",
          "type": "address"
        }
      ],
      "name": "addDocument",
      "outputs": [],
      "stateMutability": "nonpayable",
      "type": "function"
    },
    {
      "inputs": [
        {
          "internalType": "string",
          "name": "fileHash",
          "type": "string"
        }
      ],
      "name": "getDocument",
      "outputs": [
        {
          "components": [
            {
              "internalType": "string",
              "name": "fileName",
              "type": "string"
            },
            {
              "internalType": "string",
              "name": "fileCID",
              "type": "string"
            },
            {
              "internalType": "string",
              "name": "fileKey",
              "type": "string"
            },
            {
              "internalType": "string",
              "name": "fileHash",
              "type": "string"
            },
            {
              "internalType": "address",
              "name": "issuer",
              "type": "address"
            },
            {
              "internalType": "address",
              "name": "owner",
              "type": "address"
            },
            {
              "internalType": "enum MediDocContract.State",
              "name": "state",
              "type": "uint8"
            },
            {
              "internalType": "uint256",
              "name": "timestamp",
              "type": "uint256"
            }
          ],
          "internalType": "struct MediDocContract.Document",
          "name": "",
          "type": "tuple"
        }
      ],
      "stateMutability": "view",
      "type": "function"
    },
    {
      "inputs": [],
      "name": "getDocuments",
      "outputs": [
        {
          "components": [
            {
              "internalType": "string",
              "name": "fileName",
              "type": "string"
            },
            {
              "internalType": "string",
              "name": "fileCID",
              "type": "string"
            },
            {
              "internalType": "string",
              "name": "fileKey",
              "type": "string"
            },
            {
              "internalType": "string",
              "name": "fileHash",
              "type": "string"
            },
            {
              "internalType": "address",
              "name": "issuer",
              "type": "address"
            },
            {
              "internalType": "address",
              "name": "owner",
              "type": "address"
            },
            {
              "internalType": "enum MediDocContract.State",
              "name": "state",
              "type": "uint8"
            },
            {
              "internalType": "uint256",
              "name": "timestamp",
              "type": "uint256"
            }
          ],
          "internalType": "struct MediDocContract.Document[]",
          "name": "",
          "type": "tuple[]"
        }
      ],
      "stateMutability": "view",
      "type": "function"
    },
    {
      "inputs": [
        {
          "internalType": "string",
          "name": "fileHash",
          "type": "string"
        }
      ],
      "name": "isVerified",
      "outputs": [
        {
          "internalType": "bool",
          "name": "",
          "type": "bool"
        }
      ],
      "stateMutability": "view",
      "type": "function"
    },
    {
      "inputs": [
        {
          "internalType": "address",
          "name": "owner",
          "type": "address"
        },
        {
          "internalType": "string",
          "name": "fileHash",
          "type": "string"
        }
      ],
      "name": "isVerified2",
      "outputs": [
        {
          "internalType": "bool",
          "name": "",
          "type": "bool"
        }
      ],
      "stateMutability": "view",
      "type": "function"
    },
    {
      "inputs": [
        {
          "internalType": "string",
          "name": "s1",
          "type": "string"
        },
        {
          "internalType": "string",
          "name": "s2",
          "type": "string"
        }
      ],
      "name": "strcmp",
      "outputs": [
        {
          "internalType": "bool",
          "name": "",
          "type": "bool"
        }
      ],
      "stateMutability": "pure",
      "type": "function"
    },
    {
      "inputs": [
        {
          "internalType": "string",
          "name": "fileHash",
          "type": "string"
        }
      ],
      "name": "verify",
      "outputs": [],
      "stateMutability": "nonpayable",
      "type": "function"
    }
  ],
  "bytecode": "0x608060405234801561001057600080fd5b5061274e806100206000396000f3fe608060405234801561001057600080fd5b506004361061007d5760003560e01c80639cfbe1a61161005b5780639cfbe1a614610112578063bb9c6c3e14610142578063e559fae01461015e578063ef2d87001461017a5761007d565b8063234c76d51461008257806360455cc8146100b25780637ccb6a64146100e2575b600080fd5b61009c60048036038101906100979190611ab0565b610198565b6040516100a99190611b14565b60405180910390f35b6100cc60048036038101906100c79190611b8d565b610611565b6040516100d99190611b14565b60405180910390f35b6100fc60048036038101906100f79190611ab0565b610a8b565b6040516101099190611dcc565b60405180910390f35b61012c60048036038101906101279190611dee565b610f16565b6040516101399190611b14565b60405180910390f35b61015c60048036038101906101579190611ab0565b610f6f565b005b61017860048036038101906101739190611e66565b6112b4565b005b6101826114fe565b60405161018f91906120d8565b60405180910390f35b6000806000803373ffffffffffffffffffffffffffffffffffffffff1673ffffffffffffffffffffffffffffffffffffffff168152602001908152602001600020805480602002602001604051908101604052809291908181526020016000905b8282101561056557838290600052602060002090600702016040518061010001604052908160008201805461022d90612129565b80601f016020809104026020016040519081016040528092919081815260200182805461025990612129565b80156102a65780601f1061027b576101008083540402835291602001916102a6565b820191906000526020600020905b81548152906001019060200180831161028957829003601f168201915b505050505081526020016001820180546102bf90612129565b80601f01602080910402602001604051908101604052809291908181526020018280546102eb90612129565b80156103385780601f1061030d57610100808354040283529160200191610338565b820191906000526020600020905b81548152906001019060200180831161031b57829003601f168201915b5050505050815260200160028201805461035190612129565b80601f016020809104026020016040519081016040528092919081815260200182805461037d90612129565b80156103ca5780601f1061039f576101008083540402835291602001916103ca565b820191906000526020600020905b8154815290600101906020018083116103ad57829003601f168201915b505050505081526020016003820180546103e390612129565b80601f016020809104026020016040519081016040528092919081815260200182805461040f90612129565b801561045c5780601f106104315761010080835404028352916020019161045c565b820191906000526020600020905b81548152906001019060200180831161043f57829003601f168201915b505050505081526020016004820160009054906101000a900473ffffffffffffffffffffffffffffffffffffffff1673ffffffffffffffffffffffffffffffffffffffff1673ffffffffffffffffffffffffffffffffffffffff1681526020016005820160009054906101000a900473ffffffffffffffffffffffffffffffffffffffff1673ffffffffffffffffffffffffffffffffffffffff1673ffffffffffffffffffffffffffffffffffffffff1681526020016005820160149054906101000a900460ff16600181111561053657610535611c77565b5b600181111561054857610547611c77565b5b8152602001600682015481525050815260200190600101906101f9565b50505050905060005b81518110156106055761059f82828151811061058d5761058c61215a565b5b60200260200101516060015185610f16565b156105f2576001808111156105b7576105b6611c77565b5b8282815181106105ca576105c961215a565b5b602002602001015160c0015160018111156105e8576105e7611c77565b5b149250505061060c565b80806105fd906121b8565b91505061056e565b5060009150505b919050565b6000806000808573ffffffffffffffffffffffffffffffffffffffff1673ffffffffffffffffffffffffffffffffffffffff168152602001908152602001600020805480602002602001604051908101604052809291908181526020016000905b828210156109de5783829060005260206000209060070201604051806101000160405290816000820180546106a690612129565b80601f01602080910402602001604051908101604052809291908181526020018280546106d290612129565b801561071f5780601f106106f45761010080835404028352916020019161071f565b820191906000526020600020905b81548152906001019060200180831161070257829003601f168201915b5050505050815260200160018201805461073890612129565b80601f016020809104026020016040519081016040528092919081815260200182805461076490612129565b80156107b15780601f10610786576101008083540402835291602001916107b1565b820191906000526020600020905b81548152906001019060200180831161079457829003601f168201915b505050505081526020016002820180546107ca90612129565b80601f01602080910402602001604051908101604052809291908181526020018280546107f690612129565b80156108435780601f1061081857610100808354040283529160200191610843565b820191906000526020600020905b81548152906001019060200180831161082657829003601f168201915b5050505050815260200160038201805461085c90612129565b80601f016020809104026020016040519081016040528092919081815260200182805461088890612129565b80156108d55780601f106108aa576101008083540402835291602001916108d5565b820191906000526020600020905b8154815290600101906020018083116108b857829003601f168201915b505050505081526020016004820160009054906101000a900473ffffffffffffffffffffffffffffffffffffffff1673ffffffffffffffffffffffffffffffffffffffff1673ffffffffffffffffffffffffffffffffffffffff1681526020016005820160009054906101000a900473ffffffffffffffffffffffffffffffffffffffff1673ffffffffffffffffffffffffffffffffffffffff1673ffffffffffffffffffffffffffffffffffffffff1681526020016005820160149054906101000a900460ff1660018111156109af576109ae611c77565b5b60018111156109c1576109c0611c77565b5b815260200160068201548152505081526020019060010190610672565b50505050905060005b8151811015610a7e57610a18828281518110610a0657610a0561215a565b5b60200260200101516060015185610f16565b15610a6b57600180811115610a3057610a2f611c77565b5b828281518110610a4357610a4261215a565b5b602002602001015160c001516001811115610a6157610a60611c77565b5b1492505050610a85565b8080610a76906121b8565b9150506109e7565b5060009150505b92915050565b610a936118d3565b60008060003373ffffffffffffffffffffffffffffffffffffffff1673ffffffffffffffffffffffffffffffffffffffff168152602001908152602001600020805480602002602001604051908101604052809291908181526020016000905b82821015610e5f578382906000526020600020906007020160405180610100016040529081600082018054610b2790612129565b80601f0160208091040260200160405190810160405280929190818152602001828054610b5390612129565b8015610ba05780601f10610b7557610100808354040283529160200191610ba0565b820191906000526020600020905b815481529060010190602001808311610b8357829003601f168201915b50505050508152602001600182018054610bb990612129565b80601f0160208091040260200160405190810160405280929190818152602001828054610be590612129565b8015610c325780601f10610c0757610100808354040283529160200191610c32565b820191906000526020600020905b815481529060010190602001808311610c1557829003601f168201915b50505050508152602001600282018054610c4b90612129565b80601f0160208091040260200160405190810160405280929190818152602001828054610c7790612129565b8015610cc45780601f10610c9957610100808354040283529160200191610cc4565b820191906000526020600020905b815481529060010190602001808311610ca757829003601f168201915b50505050508152602001600382018054610cdd90612129565b80601f0160208091040260200160405190810160405280929190818152602001828054610d0990612129565b8015610d565780601f10610d2b57610100808354040283529160200191610d56565b820191906000526020600020905b815481529060010190602001808311610d3957829003601f168201915b505050505081526020016004820160009054906101000a900473ffffffffffffffffffffffffffffffffffffffff1673ffffffffffffffffffffffffffffffffffffffff1673ffffffffffffffffffffffffffffffffffffffff1681526020016005820160009054906101000a900473ffffffffffffffffffffffffffffffffffffffff1673ffffffffffffffffffffffffffffffffffffffff1673ffffffffffffffffffffffffffffffffffffffff1681526020016005820160149054906101000a900460ff166001811115610e3057610e2f611c77565b5b6001811115610e4257610e41611c77565b5b815260200160068201548152505081526020019060010190610af3565b50505050905060005b8151811015610ed557610e99828281518110610e8757610e8661215a565b5b60200260200101516060015185610f16565b15610ec257818181518110610eb157610eb061215a565b5b602002602001015192505050610f11565b8080610ecd906121b8565b915050610e68565b506040517f08c379a0000000000000000000000000000000000000000000000000000000008152600401610f089061225d565b60405180910390fd5b919050565b600081604051602001610f2991906122b9565b6040516020818303038152906040528051906020012083604051602001610f5091906122b9565b6040516020818303038152906040528051906020012014905092915050565b60008060003373ffffffffffffffffffffffffffffffffffffffff1673ffffffffffffffffffffffffffffffffffffffff16815260200190815260200160002080549050905060005b818110156112af576110b36000803373ffffffffffffffffffffffffffffffffffffffff1673ffffffffffffffffffffffffffffffffffffffff16815260200190815260200160002082815481106110135761101261215a565b5b9060005260206000209060070201600301805461102f90612129565b80601f016020809104026020016040519081016040528092919081815260200182805461105b90612129565b80156110a85780601f1061107d576101008083540402835291602001916110a8565b820191906000526020600020905b81548152906001019060200180831161108b57829003601f168201915b505050505084610f16565b1561129c577f3f3cfdb26fb5f9f1786ab4f1a1f9cd4c0b5e726cbdfc26e495261731aad44e396040516110e59061231c565b60405180910390a13373ffffffffffffffffffffffffffffffffffffffff166000803373ffffffffffffffffffffffffffffffffffffffff1673ffffffffffffffffffffffffffffffffffffffff16815260200190815260200160002082815481106111545761115361215a565b5b906000526020600020906007020160050160009054906101000a900473ffffffffffffffffffffffffffffffffffffffff1673ffffffffffffffffffffffffffffffffffffffff16036111dc576040517f08c379a00000000000000000000000000000000000000000000000000000000081526004016111d390612388565b60405180910390fd5b60016000803373ffffffffffffffffffffffffffffffffffffffff1673ffffffffffffffffffffffffffffffffffffffff168152602001908152602001600020828154811061122e5761122d61215a565b5b906000526020600020906007020160050160146101000a81548160ff0219169083600181111561126157611260611c77565b5b02179055507f3f3cfdb26fb5f9f1786ab4f1a1f9cd4c0b5e726cbdfc26e495261731aad44e39604051611293906123f4565b60405180910390a15b80806112a7906121b8565b915050610fb8565b505050565b60006040518061010001604052808781526020018681526020018581526020018481526020013373ffffffffffffffffffffffffffffffffffffffff1681526020018373ffffffffffffffffffffffffffffffffffffffff1681526020016000600181111561132657611325611c77565b5b81526020014281525090506000808373ffffffffffffffffffffffffffffffffffffffff1673ffffffffffffffffffffffffffffffffffffffff16815260200190815260200160002081908060018154018082558091505060019003906000526020600020906007020160009091909190915060008201518160000190816113ae91906125c0565b5060208201518160010190816113c491906125c0565b5060408201518160020190816113da91906125c0565b5060608201518160030190816113f091906125c0565b5060808201518160040160006101000a81548173ffffffffffffffffffffffffffffffffffffffff021916908373ffffffffffffffffffffffffffffffffffffffff16021790555060a08201518160050160006101000a81548173ffffffffffffffffffffffffffffffffffffffff021916908373ffffffffffffffffffffffffffffffffffffffff16021790555060c08201518160050160146101000a81548160ff021916908360018111156114aa576114a9611c77565b5b021790555060e0820151816006015550507ff885eea783bd7e06482051fd51d6ca5697d74a7563c616b9ce20d2bb3a2c23148633846040516114ee939291906126da565b60405180910390a1505050505050565b60606000803373ffffffffffffffffffffffffffffffffffffffff1673ffffffffffffffffffffffffffffffffffffffff168152602001908152602001600020805480602002602001604051908101604052809291908181526020016000905b828210156118ca57838290600052602060002090600702016040518061010001604052908160008201805461159290612129565b80601f01602080910402602001604051908101604052809291908181526020018280546115be90612129565b801561160b5780601f106115e05761010080835404028352916020019161160b565b820191906000526020600020905b8154815290600101906020018083116115ee57829003601f168201915b5050505050815260200160018201805461162490612129565b80601f016020809104026020016040519081016040528092919081815260200182805461165090612129565b801561169d5780601f106116725761010080835404028352916020019161169d565b820191906000526020600020905b81548152906001019060200180831161168057829003601f168201915b505050505081526020016002820180546116b690612129565b80601f01602080910402602001604051908101604052809291908181526020018280546116e290612129565b801561172f5780601f106117045761010080835404028352916020019161172f565b820191906000526020600020905b81548152906001019060200180831161171257829003601f168201915b5050505050815260200160038201805461174890612129565b80601f016020809104026020016040519081016040528092919081815260200182805461177490612129565b80156117c15780601f10611796576101008083540402835291602001916117c1565b820191906000526020600020905b8154815290600101906020018083116117a457829003601f168201915b505050505081526020016004820160009054906101000a900473ffffffffffffffffffffffffffffffffffffffff1673ffffffffffffffffffffffffffffffffffffffff1673ffffffffffffffffffffffffffffffffffffffff1681526020016005820160009054906101000a900473ffffffffffffffffffffffffffffffffffffffff1673ffffffffffffffffffffffffffffffffffffffff1673ffffffffffffffffffffffffffffffffffffffff1681526020016005820160149054906101000a900460ff16600181111561189b5761189a611c77565b5b60018111156118ad576118ac611c77565b5b81526020016006820154815250508152602001906001019061155e565b50505050905090565b60405180610100016040528060608152602001606081526020016060815260200160608152602001600073ffffffffffffffffffffffffffffffffffffffff168152602001600073ffffffffffffffffffffffffffffffffffffffff1681526020016000600181111561194957611948611c77565b5b8152602001600081525090565b6000604051905090565b600080fd5b600080fd5b600080fd5b600080fd5b6000601f19601f8301169050919050565b7f4e487b7100000000000000000000000000000000000000000000000000000000600052604160045260246000fd5b6119bd82611974565b810181811067ffffffffffffffff821117156119dc576119db611985565b5b80604052505050565b60006119ef611956565b90506119fb82826119b4565b919050565b600067ffffffffffffffff821115611a1b57611a1a611985565b5b611a2482611974565b9050602081019050919050565b82818337600083830152505050565b6000611a53611a4e84611a00565b6119e5565b905082815260208101848484011115611a6f57611a6e61196f565b5b611a7a848285611a31565b509392505050565b600082601f830112611a9757611a9661196a565b5b8135611aa7848260208601611a40565b91505092915050565b600060208284031215611ac657611ac5611960565b5b600082013567ffffffffffffffff811115611ae457611ae3611965565b5b611af084828501611a82565b91505092915050565b60008115159050919050565b611b0e81611af9565b82525050565b6000602082019050611b296000830184611b05565b92915050565b600073ffffffffffffffffffffffffffffffffffffffff82169050919050565b6000611b5a82611b2f565b9050919050565b611b6a81611b4f565b8114611b7557600080fd5b50565b600081359050611b8781611b61565b92915050565b60008060408385031215611ba457611ba3611960565b5b6000611bb285828601611b78565b925050602083013567ffffffffffffffff811115611bd357611bd2611965565b5b611bdf85828601611a82565b9150509250929050565b600081519050919050565b600082825260208201905092915050565b60005b83811015611c23578082015181840152602081019050611c08565b60008484015250505050565b6000611c3a82611be9565b611c448185611bf4565b9350611c54818560208601611c05565b611c5d81611974565b840191505092915050565b611c7181611b4f565b82525050565b7f4e487b7100000000000000000000000000000000000000000000000000000000600052602160045260246000fd5b60028110611cb757611cb6611c77565b5b50565b6000819050611cc882611ca6565b919050565b6000611cd882611cba565b9050919050565b611ce881611ccd565b82525050565b6000819050919050565b611d0181611cee565b82525050565b6000610100830160008301518482036000860152611d258282611c2f565b91505060208301518482036020860152611d3f8282611c2f565b91505060408301518482036040860152611d598282611c2f565b91505060608301518482036060860152611d738282611c2f565b9150506080830151611d886080860182611c68565b5060a0830151611d9b60a0860182611c68565b5060c0830151611dae60c0860182611cdf565b5060e0830151611dc160e0860182611cf8565b508091505092915050565b60006020820190508181036000830152611de68184611d07565b905092915050565b60008060408385031215611e0557611e04611960565b5b600083013567ffffffffffffffff811115611e2357611e22611965565b5b611e2f85828601611a82565b925050602083013567ffffffffffffffff811115611e5057611e4f611965565b5b611e5c85828601611a82565b9150509250929050565b600080600080600060a08688031215611e8257611e81611960565b5b600086013567ffffffffffffffff811115611ea057611e9f611965565b5b611eac88828901611a82565b955050602086013567ffffffffffffffff811115611ecd57611ecc611965565b5b611ed988828901611a82565b945050604086013567ffffffffffffffff811115611efa57611ef9611965565b5b611f0688828901611a82565b935050606086013567ffffffffffffffff811115611f2757611f26611965565b5b611f3388828901611a82565b9250506080611f4488828901611b78565b9150509295509295909350565b600081519050919050565b600082825260208201905092915050565b6000819050602082019050919050565b6000610100830160008301518482036000860152611f9b8282611c2f565b91505060208301518482036020860152611fb58282611c2f565b91505060408301518482036040860152611fcf8282611c2f565b91505060608301518482036060860152611fe98282611c2f565b9150506080830151611ffe6080860182611c68565b5060a083015161201160a0860182611c68565b5060c083015161202460c0860182611cdf565b5060e083015161203760e0860182611cf8565b508091505092915050565b600061204e8383611f7d565b905092915050565b6000602082019050919050565b600061206e82611f51565b6120788185611f5c565b93508360208202850161208a85611f6d565b8060005b858110156120c657848403895281516120a78582612042565b94506120b283612056565b925060208a0199505060018101905061208e565b50829750879550505050505092915050565b600060208201905081810360008301526120f28184612063565b905092915050565b7f4e487b7100000000000000000000000000000000000000000000000000000000600052602260045260246000fd5b6000600282049050600182168061214157607f821691505b602082108103612154576121536120fa565b5b50919050565b7f4e487b7100000000000000000000000000000000000000000000000000000000600052603260045260246000fd5b7f4e487b7100000000000000000000000000000000000000000000000000000000600052601160045260246000fd5b60006121c382611cee565b91507fffffffffffffffffffffffffffffffffffffffffffffffffffffffffffffffff82036121f5576121f4612189565b5b600182019050919050565b600082825260208201905092915050565b7f4e6f7420666f756e640000000000000000000000000000000000000000000000600082015250565b6000612247600983612200565b915061225282612211565b602082019050919050565b600060208201905081810360008301526122768161223a565b9050919050565b600081905092915050565b600061229382611be9565b61229d818561227d565b93506122ad818560208601611c05565b80840191505092915050565b60006122c58284612288565b915081905092915050565b7f66696c6520666f756e6400000000000000000000000000000000000000000000600082015250565b6000612306600a83612200565b9150612311826122d0565b602082019050919050565b60006020820190508181036000830152612335816122f9565b9050919050565b7f4e6f74206f776e65720000000000000000000000000000000000000000000000600082015250565b6000612372600983612200565b915061237d8261233c565b602082019050919050565b600060208201905081810360008301526123a181612365565b9050919050565b7f646f63756d656e74207665726966696564000000000000000000000000000000600082015250565b60006123de601183612200565b91506123e9826123a8565b602082019050919050565b6000602082019050818103600083015261240d816123d1565b9050919050565b60008190508160005260206000209050919050565b60006020601f8301049050919050565b600082821b905092915050565b6000600883026124767fffffffffffffffffffffffffffffffffffffffffffffffffffffffffffffffff82612439565b6124808683612439565b95508019841693508086168417925050509392505050565b6000819050919050565b60006124bd6124b86124b384611cee565b612498565b611cee565b9050919050565b6000819050919050565b6124d7836124a2565b6124eb6124e3826124c4565b848454612446565b825550505050565b600090565b6125006124f3565b61250b8184846124ce565b505050565b5b8181101561252f576125246000826124f8565b600181019050612511565b5050565b601f8211156125745761254581612414565b61254e84612429565b8101602085101561255d578190505b61257161256985612429565b830182612510565b50505b505050565b600082821c905092915050565b600061259760001984600802612579565b1980831691505092915050565b60006125b08383612586565b9150826002028217905092915050565b6125c982611be9565b67ffffffffffffffff8111156125e2576125e1611985565b5b6125ec8254612129565b6125f7828285612533565b600060209050601f83116001811461262a5760008415612618578287015190505b61262285826125a4565b86555061268a565b601f19841661263886612414565b60005b828110156126605784890151825560018201915060208501945060208101905061263b565b8683101561267d5784890151612679601f891682612586565b8355505b6001600288020188555050505b505050505050565b600061269d82611be9565b6126a78185612200565b93506126b7818560208601611c05565b6126c081611974565b840191505092915050565b6126d481611b4f565b82525050565b600060608201905081810360008301526126f48186612692565b905061270360208301856126cb565b61271060408301846126cb565b94935050505056fea2646970667358221220303ee60d54d69e37a4fdee5ccc27aea5d5291158de2e4cb50f4583045d6a30ea64736f6c63430008110033",
  "linkReferences": {},
  "deployedLinkReferences": {}
}