{
  "_format": "hh-sol-artifact-1",
  "contractName": "MediDocContract",
  "sourceName": "contracts/MediDoc.sol",
  "abi": [
    {
      "anonymous": false,
      "inputs": [
        {
          "indexed": false,
          "internalType": "string",
          "name": "fileCID",
          "type": "string"
        },
        {
          "indexed": false,
          "internalType": "address",
          "name": "creator",
          "type": "address"
        },
        {
          "indexed": false,
          "internalType": "address",
          "name": "owner",
          "type": "address"
        }
      ],
      "name": "FileUploadLog",
      "type": "event"
    },
    {
      "inputs": [
        {
          "internalType": "string",
          "name": "fileName",
          "type": "string"
        },
        {
          "internalType": "string",
          "name": "fileCID",
          "type": "string"
        },
        {
          "internalType": "string",
          "name": "fileKey",
          "type": "string"
        },
        {
          "internalType": "string",
          "name": "fileHash",
          "type": "string"
        },
        {
          "internalType": "address",
          "name": "ownerAddress",
          "type": "address"
        }
      ],
      "name": "addDocument",
      "outputs": [],
      "stateMutability": "nonpayable",
      "type": "function"
    },
    {
      "inputs": [
        {
          "internalType": "address",
          "name": "owner",
          "type": "address"
        },
        {
          "internalType": "string",
          "name": "fileHash",
          "type": "string"
        }
      ],
      "name": "getDocument",
      "outputs": [
        {
          "components": [
            {
              "internalType": "string",
              "name": "fileName",
              "type": "string"
            },
            {
              "internalType": "string",
              "name": "fileCID",
              "type": "string"
            },
            {
              "internalType": "string",
              "name": "fileKey",
              "type": "string"
            },
            {
              "internalType": "string",
              "name": "fileHash",
              "type": "string"
            },
            {
              "internalType": "address",
              "name": "issuer",
              "type": "address"
            },
            {
              "internalType": "address",
              "name": "owner",
              "type": "address"
            },
            {
              "internalType": "uint256",
              "name": "timestamp",
              "type": "uint256"
            }
          ],
          "internalType": "struct MediDocContract.Document",
          "name": "",
          "type": "tuple"
        }
      ],
      "stateMutability": "view",
      "type": "function"
    },
    {
      "inputs": [],
      "name": "getDocuments",
      "outputs": [
        {
          "components": [
            {
              "internalType": "string",
              "name": "fileName",
              "type": "string"
            },
            {
              "internalType": "string",
              "name": "fileCID",
              "type": "string"
            },
            {
              "internalType": "string",
              "name": "fileKey",
              "type": "string"
            },
            {
              "internalType": "string",
              "name": "fileHash",
              "type": "string"
            },
            {
              "internalType": "address",
              "name": "issuer",
              "type": "address"
            },
            {
              "internalType": "address",
              "name": "owner",
              "type": "address"
            },
            {
              "internalType": "uint256",
              "name": "timestamp",
              "type": "uint256"
            }
          ],
          "internalType": "struct MediDocContract.Document[]",
          "name": "",
          "type": "tuple[]"
        }
      ],
      "stateMutability": "view",
      "type": "function"
    },
    {
      "inputs": [
        {
          "internalType": "string",
          "name": "s1",
          "type": "string"
        },
        {
          "internalType": "string",
          "name": "s2",
          "type": "string"
        }
      ],
      "name": "strcmp",
      "outputs": [
        {
          "internalType": "bool",
          "name": "",
          "type": "bool"
        }
      ],
      "stateMutability": "pure",
      "type": "function"
    }
  ],
  "bytecode": "0x608060405234801561001057600080fd5b50611762806100206000396000f3fe608060405234801561001057600080fd5b506004361061004c5760003560e01c806398294a77146100515780639cfbe1a614610081578063e559fae0146100b1578063ef2d8700146100cd575b600080fd5b61006b60048036038101906100669190610d4e565b6100eb565b6040516100789190610f02565b60405180910390f35b61009b60048036038101906100969190610f24565b61053b565b6040516100a89190610fb7565b60405180910390f35b6100cb60048036038101906100c69190610fd2565b610594565b005b6100d5610794565b6040516100e29190611230565b60405180910390f35b6100f3610b2d565b60008060008573ffffffffffffffffffffffffffffffffffffffff1673ffffffffffffffffffffffffffffffffffffffff168152602001908152602001600020805480602002602001604051908101604052809291908181526020016000905b8282101561048357838290600052602060002090600702016040518060e001604052908160008201805461018690611281565b80601f01602080910402602001604051908101604052809291908181526020018280546101b290611281565b80156101ff5780601f106101d4576101008083540402835291602001916101ff565b820191906000526020600020905b8154815290600101906020018083116101e257829003601f168201915b5050505050815260200160018201805461021890611281565b80601f016020809104026020016040519081016040528092919081815260200182805461024490611281565b80156102915780601f1061026657610100808354040283529160200191610291565b820191906000526020600020905b81548152906001019060200180831161027457829003601f168201915b505050505081526020016002820180546102aa90611281565b80601f01602080910402602001604051908101604052809291908181526020018280546102d690611281565b80156103235780601f106102f857610100808354040283529160200191610323565b820191906000526020600020905b81548152906001019060200180831161030657829003601f168201915b5050505050815260200160038201805461033c90611281565b80601f016020809104026020016040519081016040528092919081815260200182805461036890611281565b80156103b55780601f1061038a576101008083540402835291602001916103b5565b820191906000526020600020905b81548152906001019060200180831161039857829003601f168201915b505050505081526020016004820160009054906101000a900473ffffffffffffffffffffffffffffffffffffffff1673ffffffffffffffffffffffffffffffffffffffff1673ffffffffffffffffffffffffffffffffffffffff1681526020016005820160009054906101000a900473ffffffffffffffffffffffffffffffffffffffff1673ffffffffffffffffffffffffffffffffffffffff1673ffffffffffffffffffffffffffffffffffffffff16815260200160068201548152505081526020019060010190610153565b50505050905060005b81518110156104f9576104bd8282815181106104ab576104aa6112b2565b5b6020026020010151606001518561053b565b156104e6578181815181106104d5576104d46112b2565b5b602002602001015192505050610535565b80806104f190611310565b91505061048c565b506040517f08c379a000000000000000000000000000000000000000000000000000000000815260040161052c906113b5565b60405180910390fd5b92915050565b60008160405160200161054e9190611411565b60405160208183030381529060405280519060200120836040516020016105759190611411565b6040516020818303038152906040528051906020012014905092915050565b60006040518060e001604052808781526020018681526020018581526020018481526020013373ffffffffffffffffffffffffffffffffffffffff1681526020018373ffffffffffffffffffffffffffffffffffffffff1681526020014281525090506000808373ffffffffffffffffffffffffffffffffffffffff1673ffffffffffffffffffffffffffffffffffffffff168152602001908152602001600020819080600181540180825580915050600190039060005260206000209060070201600090919091909150600082015181600001908161067491906115d4565b50602082015181600101908161068a91906115d4565b5060408201518160020190816106a091906115d4565b5060608201518160030190816106b691906115d4565b5060808201518160040160006101000a81548173ffffffffffffffffffffffffffffffffffffffff021916908373ffffffffffffffffffffffffffffffffffffffff16021790555060a08201518160050160006101000a81548173ffffffffffffffffffffffffffffffffffffffff021916908373ffffffffffffffffffffffffffffffffffffffff16021790555060c0820151816006015550507ff885eea783bd7e06482051fd51d6ca5697d74a7563c616b9ce20d2bb3a2c2314863384604051610784939291906116ee565b60405180910390a1505050505050565b60606000803373ffffffffffffffffffffffffffffffffffffffff1673ffffffffffffffffffffffffffffffffffffffff168152602001908152602001600020805480602002602001604051908101604052809291908181526020016000905b82821015610b2457838290600052602060002090600702016040518060e001604052908160008201805461082790611281565b80601f016020809104026020016040519081016040528092919081815260200182805461085390611281565b80156108a05780601f10610875576101008083540402835291602001916108a0565b820191906000526020600020905b81548152906001019060200180831161088357829003601f168201915b505050505081526020016001820180546108b990611281565b80601f01602080910402602001604051908101604052809291908181526020018280546108e590611281565b80156109325780601f1061090757610100808354040283529160200191610932565b820191906000526020600020905b81548152906001019060200180831161091557829003601f168201915b5050505050815260200160028201805461094b90611281565b80601f016020809104026020016040519081016040528092919081815260200182805461097790611281565b80156109c45780601f10610999576101008083540402835291602001916109c4565b820191906000526020600020905b8154815290600101906020018083116109a757829003601f168201915b505050505081526020016003820180546109dd90611281565b80601f0160208091040260200160405190810160405280929190818152602001828054610a0990611281565b8015610a565780601f10610a2b57610100808354040283529160200191610a56565b820191906000526020600020905b815481529060010190602001808311610a3957829003601f168201915b505050505081526020016004820160009054906101000a900473ffffffffffffffffffffffffffffffffffffffff1673ffffffffffffffffffffffffffffffffffffffff1673ffffffffffffffffffffffffffffffffffffffff1681526020016005820160009054906101000a900473ffffffffffffffffffffffffffffffffffffffff1673ffffffffffffffffffffffffffffffffffffffff1673ffffffffffffffffffffffffffffffffffffffff168152602001600682015481525050815260200190600101906107f4565b50505050905090565b6040518060e0016040528060608152602001606081526020016060815260200160608152602001600073ffffffffffffffffffffffffffffffffffffffff168152602001600073ffffffffffffffffffffffffffffffffffffffff168152602001600081525090565b6000604051905090565b600080fd5b600080fd5b600073ffffffffffffffffffffffffffffffffffffffff82169050919050565b6000610bd582610baa565b9050919050565b610be581610bca565b8114610bf057600080fd5b50565b600081359050610c0281610bdc565b92915050565b600080fd5b600080fd5b6000601f19601f8301169050919050565b7f4e487b7100000000000000000000000000000000000000000000000000000000600052604160045260246000fd5b610c5b82610c12565b810181811067ffffffffffffffff82111715610c7a57610c79610c23565b5b80604052505050565b6000610c8d610b96565b9050610c998282610c52565b919050565b600067ffffffffffffffff821115610cb957610cb8610c23565b5b610cc282610c12565b9050602081019050919050565b82818337600083830152505050565b6000610cf1610cec84610c9e565b610c83565b905082815260208101848484011115610d0d57610d0c610c0d565b5b610d18848285610ccf565b509392505050565b600082601f830112610d3557610d34610c08565b5b8135610d45848260208601610cde565b91505092915050565b60008060408385031215610d6557610d64610ba0565b5b6000610d7385828601610bf3565b925050602083013567ffffffffffffffff811115610d9457610d93610ba5565b5b610da085828601610d20565b9150509250929050565b600081519050919050565b600082825260208201905092915050565b60005b83811015610de4578082015181840152602081019050610dc9565b60008484015250505050565b6000610dfb82610daa565b610e058185610db5565b9350610e15818560208601610dc6565b610e1e81610c12565b840191505092915050565b610e3281610bca565b82525050565b6000819050919050565b610e4b81610e38565b82525050565b600060e0830160008301518482036000860152610e6e8282610df0565b91505060208301518482036020860152610e888282610df0565b91505060408301518482036040860152610ea28282610df0565b91505060608301518482036060860152610ebc8282610df0565b9150506080830151610ed16080860182610e29565b5060a0830151610ee460a0860182610e29565b5060c0830151610ef760c0860182610e42565b508091505092915050565b60006020820190508181036000830152610f1c8184610e51565b905092915050565b60008060408385031215610f3b57610f3a610ba0565b5b600083013567ffffffffffffffff811115610f5957610f58610ba5565b5b610f6585828601610d20565b925050602083013567ffffffffffffffff811115610f8657610f85610ba5565b5b610f9285828601610d20565b9150509250929050565b60008115159050919050565b610fb181610f9c565b82525050565b6000602082019050610fcc6000830184610fa8565b92915050565b600080600080600060a08688031215610fee57610fed610ba0565b5b600086013567ffffffffffffffff81111561100c5761100b610ba5565b5b61101888828901610d20565b955050602086013567ffffffffffffffff81111561103957611038610ba5565b5b61104588828901610d20565b945050604086013567ffffffffffffffff81111561106657611065610ba5565b5b61107288828901610d20565b935050606086013567ffffffffffffffff81111561109357611092610ba5565b5b61109f88828901610d20565b92505060806110b088828901610bf3565b9150509295509295909350565b600081519050919050565b600082825260208201905092915050565b6000819050602082019050919050565b600060e08301600083015184820360008601526111068282610df0565b915050602083015184820360208601526111208282610df0565b9150506040830151848203604086015261113a8282610df0565b915050606083015184820360608601526111548282610df0565b91505060808301516111696080860182610e29565b5060a083015161117c60a0860182610e29565b5060c083015161118f60c0860182610e42565b508091505092915050565b60006111a683836110e9565b905092915050565b6000602082019050919050565b60006111c6826110bd565b6111d081856110c8565b9350836020820285016111e2856110d9565b8060005b8581101561121e57848403895281516111ff858261119a565b945061120a836111ae565b925060208a019950506001810190506111e6565b50829750879550505050505092915050565b6000602082019050818103600083015261124a81846111bb565b905092915050565b7f4e487b7100000000000000000000000000000000000000000000000000000000600052602260045260246000fd5b6000600282049050600182168061129957607f821691505b6020821081036112ac576112ab611252565b5b50919050565b7f4e487b7100000000000000000000000000000000000000000000000000000000600052603260045260246000fd5b7f4e487b7100000000000000000000000000000000000000000000000000000000600052601160045260246000fd5b600061131b82610e38565b91507fffffffffffffffffffffffffffffffffffffffffffffffffffffffffffffffff820361134d5761134c6112e1565b5b600182019050919050565b600082825260208201905092915050565b7f4e6f7420666f756e640000000000000000000000000000000000000000000000600082015250565b600061139f600983611358565b91506113aa82611369565b602082019050919050565b600060208201905081810360008301526113ce81611392565b9050919050565b600081905092915050565b60006113eb82610daa565b6113f581856113d5565b9350611405818560208601610dc6565b80840191505092915050565b600061141d82846113e0565b915081905092915050565b60008190508160005260206000209050919050565b60006020601f8301049050919050565b600082821b905092915050565b60006008830261148a7fffffffffffffffffffffffffffffffffffffffffffffffffffffffffffffffff8261144d565b611494868361144d565b95508019841693508086168417925050509392505050565b6000819050919050565b60006114d16114cc6114c784610e38565b6114ac565b610e38565b9050919050565b6000819050919050565b6114eb836114b6565b6114ff6114f7826114d8565b84845461145a565b825550505050565b600090565b611514611507565b61151f8184846114e2565b505050565b5b818110156115435761153860008261150c565b600181019050611525565b5050565b601f8211156115885761155981611428565b6115628461143d565b81016020851015611571578190505b61158561157d8561143d565b830182611524565b50505b505050565b600082821c905092915050565b60006115ab6000198460080261158d565b1980831691505092915050565b60006115c4838361159a565b9150826002028217905092915050565b6115dd82610daa565b67ffffffffffffffff8111156115f6576115f5610c23565b5b6116008254611281565b61160b828285611547565b600060209050601f83116001811461163e576000841561162c578287015190505b61163685826115b8565b86555061169e565b601f19841661164c86611428565b60005b828110156116745784890151825560018201915060208501945060208101905061164f565b86831015611691578489015161168d601f89168261159a565b8355505b6001600288020188555050505b505050505050565b60006116b182610daa565b6116bb8185611358565b93506116cb818560208601610dc6565b6116d481610c12565b840191505092915050565b6116e881610bca565b82525050565b6000606082019050818103600083015261170881866116a6565b905061171760208301856116df565b61172460408301846116df565b94935050505056fea264697066735822122054076bf540aaf6e2181c53c56aa370185f05c2398d3e3f0932827d5e67d8702764736f6c63430008110033",
  "linkReferences": {},
  "deployedLinkReferences": {}
}