{
  "_format": "hh-sol-artifact-1",
  "contractName": "ShareContract",
  "sourceName": "contracts/Share.sol",
  "abi": [
    {
      "inputs": [
        {
          "internalType": "string",
          "name": "fileName",
          "type": "string"
        },
        {
          "internalType": "string",
          "name": "fileCid",
          "type": "string"
        },
        {
          "internalType": "string",
          "name": "fileKey",
          "type": "string"
        },
        {
          "internalType": "address",
          "name": "receiver",
          "type": "address"
        }
      ],
      "name": "addSharedInfo",
      "outputs": [],
      "stateMutability": "nonpayable",
      "type": "function"
    },
    {
      "inputs": [],
      "name": "getSharedInfos",
      "outputs": [
        {
          "components": [
            {
              "internalType": "string",
              "name": "fileName",
              "type": "string"
            },
            {
              "internalType": "string",
              "name": "fileCid",
              "type": "string"
            },
            {
              "internalType": "string",
              "name": "fileKey",
              "type": "string"
            },
            {
              "internalType": "address",
              "name": "owner",
              "type": "address"
            },
            {
              "internalType": "address",
              "name": "sharedwith",
              "type": "address"
            },
            {
              "internalType": "uint256",
              "name": "timestamp",
              "type": "uint256"
            }
          ],
          "internalType": "struct ShareContract.SharedInfo[]",
          "name": "",
          "type": "tuple[]"
        }
      ],
      "stateMutability": "view",
      "type": "function"
    }
  ],
  "bytecode": "0x608060405234801561001057600080fd5b50610ccd806100206000396000f3fe608060405234801561001057600080fd5b50600436106100365760003560e01c80631d35dd8e1461003b578063c64e1aac14610057575b600080fd5b610055600480360381019061005091906106dc565b610075565b005b61005f61021d565b60405161006c9190610997565b60405180910390f35b60006040518060c001604052808681526020018581526020018481526020013373ffffffffffffffffffffffffffffffffffffffff1681526020018373ffffffffffffffffffffffffffffffffffffffff1681526020014281525090506000808373ffffffffffffffffffffffffffffffffffffffff1673ffffffffffffffffffffffffffffffffffffffff168152602001908152602001600020819080600181540180825580915050600190039060005260206000209060060201600090919091909150600082015181600001908161014f9190610bc5565b5060208201518160010190816101659190610bc5565b50604082015181600201908161017b9190610bc5565b5060608201518160030160006101000a81548173ffffffffffffffffffffffffffffffffffffffff021916908373ffffffffffffffffffffffffffffffffffffffff16021790555060808201518160040160006101000a81548173ffffffffffffffffffffffffffffffffffffffff021916908373ffffffffffffffffffffffffffffffffffffffff16021790555060a0820151816005015550505050505050565b60606000803373ffffffffffffffffffffffffffffffffffffffff1673ffffffffffffffffffffffffffffffffffffffff168152602001908152602001600020805480602002602001604051908101604052809291908181526020016000905b8282101561051b57838290600052602060002090600602016040518060c00160405290816000820180546102b0906109e8565b80601f01602080910402602001604051908101604052809291908181526020018280546102dc906109e8565b80156103295780601f106102fe57610100808354040283529160200191610329565b820191906000526020600020905b81548152906001019060200180831161030c57829003601f168201915b50505050508152602001600182018054610342906109e8565b80601f016020809104026020016040519081016040528092919081815260200182805461036e906109e8565b80156103bb5780601f10610390576101008083540402835291602001916103bb565b820191906000526020600020905b81548152906001019060200180831161039e57829003601f168201915b505050505081526020016002820180546103d4906109e8565b80601f0160208091040260200160405190810160405280929190818152602001828054610400906109e8565b801561044d5780601f106104225761010080835404028352916020019161044d565b820191906000526020600020905b81548152906001019060200180831161043057829003601f168201915b505050505081526020016003820160009054906101000a900473ffffffffffffffffffffffffffffffffffffffff1673ffffffffffffffffffffffffffffffffffffffff1673ffffffffffffffffffffffffffffffffffffffff1681526020016004820160009054906101000a900473ffffffffffffffffffffffffffffffffffffffff1673ffffffffffffffffffffffffffffffffffffffff1673ffffffffffffffffffffffffffffffffffffffff1681526020016005820154815250508152602001906001019061027d565b50505050905090565b6000604051905090565b600080fd5b600080fd5b600080fd5b600080fd5b6000601f19601f8301169050919050565b7f4e487b7100000000000000000000000000000000000000000000000000000000600052604160045260246000fd5b61058b82610542565b810181811067ffffffffffffffff821117156105aa576105a9610553565b5b80604052505050565b60006105bd610524565b90506105c98282610582565b919050565b600067ffffffffffffffff8211156105e9576105e8610553565b5b6105f282610542565b9050602081019050919050565b82818337600083830152505050565b600061062161061c846105ce565b6105b3565b90508281526020810184848401111561063d5761063c61053d565b5b6106488482856105ff565b509392505050565b600082601f83011261066557610664610538565b5b813561067584826020860161060e565b91505092915050565b600073ffffffffffffffffffffffffffffffffffffffff82169050919050565b60006106a98261067e565b9050919050565b6106b98161069e565b81146106c457600080fd5b50565b6000813590506106d6816106b0565b92915050565b600080600080608085870312156106f6576106f561052e565b5b600085013567ffffffffffffffff81111561071457610713610533565b5b61072087828801610650565b945050602085013567ffffffffffffffff81111561074157610740610533565b5b61074d87828801610650565b935050604085013567ffffffffffffffff81111561076e5761076d610533565b5b61077a87828801610650565b925050606061078b878288016106c7565b91505092959194509250565b600081519050919050565b600082825260208201905092915050565b6000819050602082019050919050565b600081519050919050565b600082825260208201905092915050565b60005b838110156107fd5780820151818401526020810190506107e2565b60008484015250505050565b6000610814826107c3565b61081e81856107ce565b935061082e8185602086016107df565b61083781610542565b840191505092915050565b61084b8161069e565b82525050565b6000819050919050565b61086481610851565b82525050565b600060c08301600083015184820360008601526108878282610809565b915050602083015184820360208601526108a18282610809565b915050604083015184820360408601526108bb8282610809565b91505060608301516108d06060860182610842565b5060808301516108e36080860182610842565b5060a08301516108f660a086018261085b565b508091505092915050565b600061090d838361086a565b905092915050565b6000602082019050919050565b600061092d82610797565b61093781856107a2565b935083602082028501610949856107b3565b8060005b8581101561098557848403895281516109668582610901565b945061097183610915565b925060208a0199505060018101905061094d565b50829750879550505050505092915050565b600060208201905081810360008301526109b18184610922565b905092915050565b7f4e487b7100000000000000000000000000000000000000000000000000000000600052602260045260246000fd5b60006002820490506001821680610a0057607f821691505b602082108103610a1357610a126109b9565b5b50919050565b60008190508160005260206000209050919050565b60006020601f8301049050919050565b600082821b905092915050565b600060088302610a7b7fffffffffffffffffffffffffffffffffffffffffffffffffffffffffffffffff82610a3e565b610a858683610a3e565b95508019841693508086168417925050509392505050565b6000819050919050565b6000610ac2610abd610ab884610851565b610a9d565b610851565b9050919050565b6000819050919050565b610adc83610aa7565b610af0610ae882610ac9565b848454610a4b565b825550505050565b600090565b610b05610af8565b610b10818484610ad3565b505050565b5b81811015610b3457610b29600082610afd565b600181019050610b16565b5050565b601f821115610b7957610b4a81610a19565b610b5384610a2e565b81016020851015610b62578190505b610b76610b6e85610a2e565b830182610b15565b50505b505050565b600082821c905092915050565b6000610b9c60001984600802610b7e565b1980831691505092915050565b6000610bb58383610b8b565b9150826002028217905092915050565b610bce826107c3565b67ffffffffffffffff811115610be757610be6610553565b5b610bf182546109e8565b610bfc828285610b38565b600060209050601f831160018114610c2f5760008415610c1d578287015190505b610c278582610ba9565b865550610c8f565b601f198416610c3d86610a19565b60005b82811015610c6557848901518255600182019150602085019450602081019050610c40565b86831015610c825784890151610c7e601f891682610b8b565b8355505b6001600288020188555050505b50505050505056fea26469706673582212207c52ddd58dc71d4f3f9067584c5e9f7bb9d52c1fb21b8e7e88be7121fce9cd6264736f6c63430008110033",
  "linkReferences": {},
  "deployedLinkReferences": {}
}