{
  "_format": "hh-sol-artifact-1",
  "contractName": "UserContract",
  "sourceName": "contracts/UserContract.sol",
  "abi": [
    {
      "anonymous": false,
      "inputs": [
        {
          "indexed": false,
          "internalType": "address",
          "name": "user",
          "type": "address"
        }
      ],
      "name": "LogUser",
      "type": "event"
    },
    {
      "inputs": [
        {
          "internalType": "string",
          "name": "_userType",
          "type": "string"
        },
        {
          "internalType": "string",
          "name": "pKey",
          "type": "string"
        }
      ],
      "name": "add",
      "outputs": [],
      "stateMutability": "nonpayable",
      "type": "function"
    },
    {
      "inputs": [],
      "name": "exists",
      "outputs": [
        {
          "internalType": "bool",
          "name": "",
          "type": "bool"
        }
      ],
      "stateMutability": "view",
      "type": "function"
    },
    {
      "inputs": [
        {
          "internalType": "address",
          "name": "user",
          "type": "address"
        }
      ],
      "name": "get",
      "outputs": [
        {
          "components": [
            {
              "internalType": "string",
              "name": "userType",
              "type": "string"
            },
            {
              "internalType": "string",
              "name": "pkey",
              "type": "string"
            }
          ],
          "internalType": "struct UserContract.User",
          "name": "",
          "type": "tuple"
        }
      ],
      "stateMutability": "view",
      "type": "function"
    },
    {
      "inputs": [],
      "name": "getSelf",
      "outputs": [
        {
          "components": [
            {
              "internalType": "string",
              "name": "userType",
              "type": "string"
            },
            {
              "internalType": "string",
              "name": "pkey",
              "type": "string"
            }
          ],
          "internalType": "struct UserContract.User",
          "name": "",
          "type": "tuple"
        }
      ],
      "stateMutability": "view",
      "type": "function"
    },
    {
      "inputs": [
        {
          "internalType": "string",
          "name": "s1",
          "type": "string"
        },
        {
          "internalType": "string",
          "name": "s2",
          "type": "string"
        }
      ],
      "name": "strcmp",
      "outputs": [
        {
          "internalType": "bool",
          "name": "",
          "type": "bool"
        }
      ],
      "stateMutability": "pure",
      "type": "function"
    }
  ],
  "bytecode": "0x608060405234801561001057600080fd5b50610cdc806100206000396000f3fe608060405234801561001057600080fd5b50600436106100575760003560e01c8063267c4ae41461005c5780639cfbe1a61461007a578063c2bc2efc146100aa578063e237f75b146100da578063ebdf86ca146100f8575b600080fd5b610064610114565b604051610071919061060e565b60405180910390f35b610094600480360381019061008f9190610783565b6101fe565b6040516100a1919061060e565b60405180910390f35b6100c460048036038101906100bf9190610859565b610257565b6040516100d19190610949565b60405180910390f35b6100e26103d3565b6040516100ef9190610949565b60405180910390f35b610112600480360381019061010d9190610783565b61054d565b005b60006101f86000803373ffffffffffffffffffffffffffffffffffffffff1673ffffffffffffffffffffffffffffffffffffffff16815260200190815260200160002060000180546101659061099a565b80601f01602080910402602001604051908101604052809291908181526020018280546101919061099a565b80156101de5780601f106101b3576101008083540402835291602001916101de565b820191906000526020600020905b8154815290600101906020018083116101c157829003601f168201915b5050505050604051806020016040528060008152506101fe565b15905090565b6000816040516020016102119190610a07565b60405160208183030381529060405280519060200120836040516020016102389190610a07565b6040516020818303038152906040528051906020012014905092915050565b61025f6105d9565b6000808373ffffffffffffffffffffffffffffffffffffffff1673ffffffffffffffffffffffffffffffffffffffff1681526020019081526020016000206040518060400160405290816000820180546102b89061099a565b80601f01602080910402602001604051908101604052809291908181526020018280546102e49061099a565b80156103315780601f1061030657610100808354040283529160200191610331565b820191906000526020600020905b81548152906001019060200180831161031457829003601f168201915b5050505050815260200160018201805461034a9061099a565b80601f01602080910402602001604051908101604052809291908181526020018280546103769061099a565b80156103c35780601f10610398576101008083540402835291602001916103c3565b820191906000526020600020905b8154815290600101906020018083116103a657829003601f168201915b5050505050815250509050919050565b6103db6105d9565b6000803373ffffffffffffffffffffffffffffffffffffffff1673ffffffffffffffffffffffffffffffffffffffff1681526020019081526020016000206040518060400160405290816000820180546104349061099a565b80601f01602080910402602001604051908101604052809291908181526020018280546104609061099a565b80156104ad5780601f10610482576101008083540402835291602001916104ad565b820191906000526020600020905b81548152906001019060200180831161049057829003601f168201915b505050505081526020016001820180546104c69061099a565b80601f01602080910402602001604051908101604052809291908181526020018280546104f29061099a565b801561053f5780601f106105145761010080835404028352916020019161053f565b820191906000526020600020905b81548152906001019060200180831161052257829003601f168201915b505050505081525050905090565b60006040518060400160405280848152602001838152509050806000803373ffffffffffffffffffffffffffffffffffffffff1673ffffffffffffffffffffffffffffffffffffffff16815260200190815260200160002060008201518160000190816105ba9190610bd4565b5060208201518160010190816105d09190610bd4565b50905050505050565b604051806040016040528060608152602001606081525090565b60008115159050919050565b610608816105f3565b82525050565b600060208201905061062360008301846105ff565b92915050565b6000604051905090565b600080fd5b600080fd5b600080fd5b600080fd5b6000601f19601f8301169050919050565b7f4e487b7100000000000000000000000000000000000000000000000000000000600052604160045260246000fd5b61069082610647565b810181811067ffffffffffffffff821117156106af576106ae610658565b5b80604052505050565b60006106c2610629565b90506106ce8282610687565b919050565b600067ffffffffffffffff8211156106ee576106ed610658565b5b6106f782610647565b9050602081019050919050565b82818337600083830152505050565b6000610726610721846106d3565b6106b8565b90508281526020810184848401111561074257610741610642565b5b61074d848285610704565b509392505050565b600082601f83011261076a5761076961063d565b5b813561077a848260208601610713565b91505092915050565b6000806040838503121561079a57610799610633565b5b600083013567ffffffffffffffff8111156107b8576107b7610638565b5b6107c485828601610755565b925050602083013567ffffffffffffffff8111156107e5576107e4610638565b5b6107f185828601610755565b9150509250929050565b600073ffffffffffffffffffffffffffffffffffffffff82169050919050565b6000610826826107fb565b9050919050565b6108368161081b565b811461084157600080fd5b50565b6000813590506108538161082d565b92915050565b60006020828403121561086f5761086e610633565b5b600061087d84828501610844565b91505092915050565b600081519050919050565b600082825260208201905092915050565b60005b838110156108c05780820151818401526020810190506108a5565b60008484015250505050565b60006108d782610886565b6108e18185610891565b93506108f18185602086016108a2565b6108fa81610647565b840191505092915050565b6000604083016000830151848203600086015261092282826108cc565b9150506020830151848203602086015261093c82826108cc565b9150508091505092915050565b600060208201905081810360008301526109638184610905565b905092915050565b7f4e487b7100000000000000000000000000000000000000000000000000000000600052602260045260246000fd5b600060028204905060018216806109b257607f821691505b6020821081036109c5576109c461096b565b5b50919050565b600081905092915050565b60006109e182610886565b6109eb81856109cb565b93506109fb8185602086016108a2565b80840191505092915050565b6000610a1382846109d6565b915081905092915050565b60008190508160005260206000209050919050565b60006020601f8301049050919050565b600082821b905092915050565b600060088302610a807fffffffffffffffffffffffffffffffffffffffffffffffffffffffffffffffff82610a43565b610a8a8683610a43565b95508019841693508086168417925050509392505050565b6000819050919050565b6000819050919050565b6000610ad1610acc610ac784610aa2565b610aac565b610aa2565b9050919050565b6000819050919050565b610aeb83610ab6565b610aff610af782610ad8565b848454610a50565b825550505050565b600090565b610b14610b07565b610b1f818484610ae2565b505050565b5b81811015610b4357610b38600082610b0c565b600181019050610b25565b5050565b601f821115610b8857610b5981610a1e565b610b6284610a33565b81016020851015610b71578190505b610b85610b7d85610a33565b830182610b24565b50505b505050565b600082821c905092915050565b6000610bab60001984600802610b8d565b1980831691505092915050565b6000610bc48383610b9a565b9150826002028217905092915050565b610bdd82610886565b67ffffffffffffffff811115610bf657610bf5610658565b5b610c00825461099a565b610c0b828285610b47565b600060209050601f831160018114610c3e5760008415610c2c578287015190505b610c368582610bb8565b865550610c9e565b601f198416610c4c86610a1e565b60005b82811015610c7457848901518255600182019150602085019450602081019050610c4f565b86831015610c915784890151610c8d601f891682610b9a565b8355505b6001600288020188555050505b50505050505056fea26469706673582212203e127a38a4572fff58efd83d8c2811e52ff563d0f4efd050cd1f464e0e815b7a64736f6c63430008110033",
  "linkReferences": {},
  "deployedLinkReferences": {}
}